:020000040800F2
:10000000B80700206D130008590400085B040008BD
:100010005F04000863040008670400080000000093
:100020000000000000000000000000006B04000859
:100030006D040008000000006F040008710400084F
:100040008713000887130008871300088713000828
:100050008713000887130008871300088713000818
:100060008713000887130008871300088713000808
:1000700087130008871300088713000887130008F8
:1000800087130008871300088713000887130008E8
:1000900087130008871300088713000887130008D8
:1000A00087130008871300088713000887130008C8
:1000B000871300089F1000089D0800088713000898
:1000C00087130008871300088713000887130008A8
:1000D00087130008E312000887130008871300083D
:1000E0008713000887130008871300088713000888
:1000F0008713000887130008871300088713000878
:100100008713000887130008871300088713000867
:100110008713000887130008871300088713000857
:100120008713000887130008871300088713000847
:1001300000F002F800F03FF80AA090E8000C8244BA
:100140008344AAF10107DA4501D100F034F8AFF297
:10015000090EBAE80F0013F0010F18BFFB1A43F0A5
:10016000010318471C4700003C470000103A24BF19
:1001700078C878C1FAD8520724BF30C830C144BF0C
:1001800004680C607047000000230024002500264E
:10019000103A28BF78C1FBD8520728BF30C148BFEA
:1001A0000B607047642902F00F86002070471FB56E
:1001B0001FBD10B510BD02F03DFF1146FFF7F7FF60
:1001C00000F008F802F05BFF03B4FFF7F2FF03BC96
:1001D00001F02CF80EB5002600BF0027B046B1464E
:1001E000002500F0B9FF4FF4A06001F0DFF84FF4F4
:1001F000E13001F02AF800F02DFA00F0E1FA00F009
:10020000F3FA00F047FC00F0A4FC002140F2833038
:1002100000F058FF01E10A2000F0DBFF00F0FEFBD8
:100220000446012D42D1A82C39D008DC022C25D05F
:10023000222C1DD0622C0FD0A22C35D106E0C22C6E
:1002400022D0E02C26D0E22C2ED10BE04FF44871C6
:10025000724802F063FB28E04FF42F716F4802F000
:100260005DFB22E04FF416716C4802F057FB1CE076
:100270004FF4FA71694802F051FB16E04FF4C8716F
:10028000664802F04BFB10E04FF49671634802F0B1
:1002900045FB0AE0C821614802F040FB05E064210B
:1002A0005E4802F03BFB00E000BF04E04FF46171E8
:1002B0005A4802F033FB00F0A4FC4021584801F0FA
:1002C000D6F982461021564801F0D1F983464FF401
:1002D0008071534801F0CBF901210290504801F0A0
:1002E000C6F95B46CDE900A001464EA0029A02F095
:1002F0005FFD5148016C51A002F05AFD902C04D1D1
:100300000EB9012000E000200646012E03D1012095
:100310004E49086002E000204C490860382C01D1A9
:10032000012502E0982C00D10025012D02D100F01A
:100330000FFA01E000F00DFA0121394801F097F9B8
:10034000012812D10102364801F091F901280CD19F
:100350001021334801F08BF9012806D140213048A3
:1003600001F085F9012800D100E000BF3248006C9F
:100370003749884201DD012700E00027682C02D1BF
:100380004FF0010803E0B02C01D14FF00208012F1B
:100390001FD1B8F1010F1CD1012D1AD100202D4918
:1003A0000860182C02D100F0A6F936E04A2C02D1E0
:1003B00000F091F931E0102C02D100F0BBF92CE0F3
:1003C0005A2C02D100F0A7F927E0C82000F001FF65
:1003D00023E0012F1ED1B8F1020F1BD1012D19D13D
:1003E00000201C49086000F086F902210C4801F049
:1003F0003EF990B9B9F1000F02D100F0B9F901E06E
:1004000000F0C4F9B9F1000F01D1012000E0002093
:10041000814602E001200F490860FCE6000400402C
:10042000000801400D0A6B65793A25642C25642C7F
:1004300025642C25640D0A00400000200D0A50722E
:100440006573733A256C640D0A000000B081214287
:10045000A086010094012342704700BFFEE700BF61
:10046000FEE700BFFEE700BFFEE77047704770473A
:10047000704700000CB50020019000906C480068A7
:1004800040F480306A49086000BF6948006800F4A1
:10049000003000900198401C0190009818B9019814
:1004A000B0F5A06FF1D16248006800F4003010B1DF
:1004B0000120009001E0002000900098012843D125
:1004C0005C48006840F010005A490860084600681F
:1004D00020F0030008600846006840F00200086051
:1004E000534840685249486008464068486008469A
:1004F000406840F4806048600846406820F47C1002
:1005000048600846406840F4E810486008460068C3
:1005100040F08070086000BF4548006800F000703F
:100520000028F9D04248406820F003004049486064
:100530000846406840F00200486000BF3C48406800
:1005400000F00C000828F9D10CBD10B5FFF792FFA0
:1005500010BD10B53648006840F00100344908600D
:1005600008464068344908403149486008460068F8
:10057000324908402E4908600846006820F480206F
:1005800008600846406820F4FE0048604FF41F00F1
:100590008860FFF7DAFF4FF000602949086010BD5E
:1005A00010B5002100200022214B5B6803F00C01F4
:1005B00021B1042906D0082928D107E0214B224C7B
:1005C000236027E01F4B204C236023E0184B5B681F
:1005D00003F47010164B5B6803F48032022303EBC4
:1005E000904022B9194B4343174C23600DE0104B48
:1005F0005B6803F4003323B1144B4343124C236074
:1006000003E0104B4343104C236003E00D4B0E4CB2
:10061000236000BF00BF064B5B68C3F303130C4CA1
:10062000E15C094B1B68CB40074C236010BD000008
:1006300000100240002002400000FFF8FFFFF6FE1D
:1006400008ED00E000127A000000002000093D00E3
:100650000400002008B50121582001F031FA4FF4C0
:100660008150ADF8000010208DF8030003208DF8B4
:10067000020069464C4800F067FF20214A4801F01B
:1006800012F84FF48051484801F00DF840F2622012
:10069000ADF800006946454800F056FF0221434886
:1006A00001F001F82021414800F0FDFF40213F48C2
:1006B00000F0F9FF4FF400713C4800F0F4FF2020F7
:1006C000ADF8000069463A4800F03EFF2021384866
:1006D00000F0E7FF08BD01203649086000203649D8
:1006E000C1F89401012033491431086000203249D7
:1006F000C1F8A401704700202E49086001202E494E
:10070000C1F8940100202B491431086001202A49C6
:10071000C1F8A40170470020264908602649C1F8A5
:100720009401012023491431086000202249C1F8B6
:10073000A401704701201F49086000201E49C1F82C
:1007400094011C49143108601B49C1F8A401704789
:1007500070470020174908601749C1F894011549EE
:10076000143108601349203108601449086070474B
:1007700010B5FFF7B0FF4FF47A7000F02AFDFFF7D5
:10078000CAFF41F2883000F024FD10BD10B5FFF71C
:10079000A2FF4FF47A7000F01CFDFFF7CBFF41F28F
:1007A000883000F016FD10BD000C01400010014023
:1007B000001801408401224200002242B0812142FF
:1007C00008B50121042001F07BF940F25310ADF887
:1007D000000048208DF803006946024800F0B4FE8E
:1007E00008BD00000008014000B589B001210820C3
:1007F00001F066F90121042001F06FF94FF4007057
:10080000ADF8200028208DF8230003208DF8220069
:1008100008A9994800F098FE4FF40071964800F03E
:1008200040FF42F21070ADF814004720ADF8100000
:100830000020ADF81600ADF8120004A98F4801F0B1
:1008400077FA0C20ADF804000020ADF80600012076
:10085000ADF808000020ADF80A000320ADF80C0048
:1008600001A9864801F0F7FC0121844801F0BCFD94
:100870001E208DF81C0001208DF81D0003208DF82E
:100880001E0001208DF81F0007A800F094FD012232
:1008900011217A4801F0C3FD09B000BD10B5012156
:1008A000764802F06AF8F8B17548007800F08000E8
:1008B000D0B17348007820F01000714908700846E4
:1008C000007800F00F0020B90846007840F04000A2
:1008D00008706B48007800F00F000E2805DA6848B1
:1008E0000078401C664908700AE06548007820F0EE
:1008F0008000634908700846007800F0F000087036
:1009000010215E4802F039F8002810D05D480068D8
:1009100070B10221594801F05FFF0021574801F0F2
:10092000F7FF5748007840F010005549087070E014
:10093000524802F00CF85449088000214F4801F059
:100940004BFF4F48007800F0100000285BD04C4867
:10095000007800F08000E8B34B480088B0F5967F3F
:100960000DDD49480088B0F5487F08DA474800683F
:1009700040004649086008460068086043E0424875
:100980000088B0F5AF6F0FDD3F480088B0F5E16F2C
:100990000ADA3E48006840003C49086008460068A2
:1009A00040F0010008602EE03748008840F69801CA
:1009B000884228DD3448008840F62821884222DA1F
:1009C00033480078401C324908702D48007800F008
:1009D000F00000E002E02A49087014E02A4800888C
:1009E00041F2680188420EDD2748008841F25C210F
:1009F000884208DA2248007840F0800020490870D8
:100A00000020234908701E48007820F010001C497F
:100A100008701121194801F0C1FF10BD10B5002068
:100A2000174B1B7803F040032BB3184B1B68190EB0
:100A3000164B1B68C3F30742D343DBB28B420BD187
:100A400051B9124B1B88C3F30721104B1A78D343BB
:100A5000DBB28B4200D1084620B1094B1B7803F072
:100A6000800343B9064B1B7823F04003044C2370EA
:100A70000023074C237010BD000C0140000800400B
:100A800014000020248121421600002018000020BC
:100A90001C00002010B500F09FF910BD70B5054690
:100AA0000C4600F0B0F9EE2000F05FFA00F0ECF92F
:100AB000284600F05AFA00F0E7F9204600F055FA0F
:100AC00000F0E2F900F0BFF970BD70B504460025F2
:100AD00000F099F9EE2000F048FA00F0D5F9204630
:100AE00000F043FA00F0D0F900F08DF9EF2000F0AB
:100AF0003CFA00F0C9F9012000F06BFA054600F05D
:100B0000A2F9284670BD2DE9F041054600F07BF9B9
:100B1000EE2000F02AFA00F0B7F9284600F025FA96
:100B200000F0B2F900F06FF9EF2000F01EFA00F0CB
:100B3000ABF9012000F04DFA0446002000F049FA1C
:100B4000074600F080F907EB042006B23046BDE806
:100B5000F08110B5AA20FFF7D6FF98490880AC2095
:100B6000FFF7D1FF95494880AE20FFF7CCFF9349AE
:100B70008880B020FFF7C7FF9049C880B220FFF7F8
:100B8000C2FF8E490881B420FFF7BDFF8B49488121
:100B9000B620FFF7B8FF89498881B820FFF7B3FF77
:100BA0008649C881BA20FFF7AEFF84490882BC207D
:100BB000FFF7A9FF81494882BE20FFF7A4FF7F49C4
:100BC000888210BD10B500242E21F420FFF766FFA7
:100BD000052000F0FEFAF620FFF795FF04462046B8
:100BE00010BD10B500243421F420FFF757FF052075
:100BF00000F0EFFAF620FFF786FF0446A4B2204685
:100C000010BD2DE9FC5FFFF7DDFF6C498861FFF740
:100C1000D9FF6A498861FFF7E4FF6849C86108465F
:100C200080694989401A654909894843C013634965
:100C300008620846006AB1F9141008445F49B1F926
:100C40001210C90291FBF0F05C4948620846006A44
:100C5000496A0844594948630846406B0830001106
:100C600048640846406BA0F57A6088630846806B4C
:100C700040430013B1F90E104843C0124F490862B7
:100C80000846B0F90200896B4843C0124B494862DC
:100C90000846006A496A0844484988628A6AB1F984
:100CA000001002EB8101881CC11700EB91718910C3
:100CB000424AD1621046B0F904001146896B48439C
:100CC0004013114608620846806B40430013B1F997
:100CD0000C1048430014114648620846006A496AED
:100CE0000844801C8010114688620846C088896AC2
:100CF00001F500414843C00B114608630846C0692E
:100D0000C96A401A4CF2503148431146C86308463C
:100D1000C06BB0F1004F08D20846C06B4000096BB1
:100D2000B0FBF1F01146086408E02448C06B234989
:100D3000096BB0FBF1F04000204908641F48006CCB
:100D4000001240431D4908620846006A40F6DE3141
:100D500048430014194908620846006C1849484382
:100D60000014164948620846006A496A084400F6B9
:100D7000CF601249096C01EB201010490864086C1F
:100D800003F054F9804600220E4B02F0F7FF0646AE
:100D90000D4A0E4B02F002FA044600220C4B03F0FF
:100DA000CDFA824600220B4B03F094F9CDE9000105
:100DB00002F0F6FE01498864BDE8FC9F4000002077
:100DC00043E3FFFFD0BCF8406C45D9CC955BC83FEE
:100DD0000000F03F40A5E54008B50121082000F0E3
:100DE0006FFEC020ADF8000014208DF80300032032
:100DF0008DF802006946904800F0A6FBC0218E489D
:100E000000F04FFC08BD10B58B48006820F0704022
:100E1000894908600846006840F040500860012099
:100E2000864908608649C1F89801042000F0ADF9B0
:100E3000002082490860042000F0A7F900208049C2
:100E4000C1F8980110BD10B57B48006820F07040D3
:100E5000794908600846006840F04050086000206A
:100E60007649091F08607649C1F89C01042000F00A
:100E70008CF901207149091F08607149C1F89C0172
:100E8000042000F082F910BD10B500246A48006803
:100E900020F07040684908600846006840F0004053
:100EA000086001206549086000F06FF9012064497D
:100EB000C1F8980100F069F907E0601CC4B2FA2C8F
:100EC00003DDFFF7C0FF012010BD5C4880380068DB
:100ED0000028F2D15949091F086000BFF4E710B596
:100EE00000205649091F08605348006820F07040F0
:100EF000514908600846006840F0405008600020F2
:100F00004F49C1F89C01022000F03FF901204B49F4
:100F1000091F0860022000F038F900204849C1F894
:100F2000980110BD10B500204449091F08604248CF
:100F3000006820F07040404908600846006840F0B2
:100F40004050086001203E49C1F89C01022000F099
:100F50001CF901203949091F0860022000F015F929
:100F600000203749C1F8980110BD70B504463248D9
:100F7000006820F07040304908600846006840F082
:100F80004050086000202D49091F086000251DE021
:100F9000E00918B101202949086002E00020274932
:100FA00008606006040E022000F0EFF801202349DB
:100FB000091F0860022000F0E8F800202049C1F86D
:100FC0009801022000F0E1F8681CC5B2082DDFDBB3
:100FD00070BD70B5054600241748006820F07040C9
:100FE000154908600846006840F000400860002687
:100FF00017E000201149091F0860022000F0C5F821
:1010000001200F49C1F898016006040E0B48803892
:10101000006808B1601CC4B2012000F0B6F8701C72
:10102000C6B2082EE5DB15B9FFF77CFF01E0FFF73C
:1010300056FF204670BD0000000C01409C812142FB
:10104000008021427FB505460C460121022000F0B8
:1010500044FDADF80850ADF804400020ADF80A009A
:10106000ADF8060001A9384800F062FE01221146E1
:10107000354801F0D4F91D208DF8000000208DF8CE
:10108000010003208DF8020001208DF8030068465E
:1010900000F091F901212C4801F0A6F97FBD10B5AF
:1010A0000121294801F069FC58B10121264801F0CD
:1010B00075FC2648006808B9012000E0002023499B
:1010C000086010BD30B589B005460C4601210220EC
:1010D00000F003FD0121092000F0F2FC01211C4871
:1010E00000F003FB2020ADF8200018208DF823002D
:1010F00003208DF8220008A9164800F025FAADF863
:101100001850ADF814400020ADF81A00ADF81600E4
:1011100005A90D4800F00CFE7020ADF80400012078
:10112000ADF806000020ADF80C0001A9064800F05B
:101130007EFE0821044801F090FA0121024801F0E6
:1011400053F909B030BD0000000400409401224270
:1011500000081A00000C014010B56FF0040000F008
:1011600074F92E4800682E49B0FBF1F02D49087043
:101170000846007800EB4001C1EBC0104FF6FF714C
:1011800001EAC0002849088010BD0146254A1278AE
:101190004A434FF0E0235A6100229A611A461269CD
:1011A00042F001021A6100BF4FF0E022106900F026
:1011B00001021AB100F48032002AF5D04FF0E0228B
:1011C000126922F001024FF0E0231A6100229A61B5
:1011D00070470146144A12884A434FF0E0235A618F
:1011E00000229A611A46126942F001021A6100BF98
:1011F0004FF0E022106900F001021AB100F48032D1
:10120000002AF5D04FF0E022126922F001024FF0DF
:10121000E0231A6100229A6170470000000000205C
:1012200000127A001E00002020000020014600BFAE
:10123000704700BF494A128802F04002002AF9D0E4
:10124000C2B2464B1B1D1A80704710B586B00446CB
:10125000012144F2040000F033FC4FF40070ADF8BB
:10126000140003208DF8160018208DF8170005A92A
:101270003B4800F069F94FF48060ADF81400042099
:101280008DF8170005A9364800F05EF925208DF885
:10129000000003208DF801008DF8020001208DF878
:1012A0000300684600F087F801940020ADF80800BC
:1012B000ADF80A00ADF80C00ADF810000C20ADF848
:1012C0000E0001A9254801F0B0FB012240F2255192
:1012D000224801F042FC0121204801F032FC06B016
:1012E00010BD10B540F225511C4801F01BFD10B394
:1012F0001A4801F097FCC4B21A48008800F4004074
:10130000C8B91848008800F4804060B10A2C03D0A6
:1013100000201449088020E01248008840F4004072
:101320001049088019E00D2C06D10E48008840F4C1
:1013300080400C49088010E00A480088C0F30D0086
:1013400009490C5407480088401C06490880084693
:101350000088C72801DD0020088010BD003801404A
:1013600000080140280000208C0000200948804728
:1013700009480047FEE7FEE7FEE7FEE7FEE7FEE777
:10138000FEE7FEE7FEE7FEE704480549054A064B8F
:10139000704700005305000831010008B801002023
:1013A000B8070020B8030020B803002031490143EA
:1013B000314A1160704770B5002100230F22C478B4
:1013C00004B32D4C246804F4E064C4F5E064210AFD
:1013D000C1F10403CA40447804FA03F1847814404C
:1013E00021430901254C0678A155047804F01F0516
:1013F0000124AC4005786D11AD0005F1E025C5F87C
:10140000004109E0047804F01F050124AC401C4DA4
:101410000678761145F8264070BD1A4A0A40024304
:10142000154B1B1F1A60704739B1134A121D126801
:101430000243114B1B1D1A6006E00F4A121D126871
:1014400082430D4B1B1D1A607047042808D14FF0D2
:10145000E021096941F004014FF0E022116107E049
:101460004FF0E021096921F004014FF0E022116101
:10147000704700000000FA050CED00E000E400E019
:1014800080E100E080FFFF1F10B50446CC48844295
:1014900008D10121042000F02DFB0021042000F0E0
:1014A00029FB46E0C748844208D10121082000F00A
:1014B00021FB0021082000F01DFB3AE0C2488442D5
:1014C00008D10121102000F015FB0021102000F0B0
:1014D00011FB2EE0BD48844208D10121202000F0FC
:1014E00009FB0021202000F005FB22E0B8488442DF
:1014F00008D10121402000F0FDFA0021402000F039
:10150000F9FA16E0B348844208D10121802000F0A6
:10151000F1FA0021802000F0EDFA0AE0AE488442A2
:1015200007D10121801500F0E5FA0021A01500F097
:10153000E1FA10BD10B50121084600F0DBFA0021E8
:10154000012000F0D7FA10BD2DE9F0410246002538
:101550000026002000230024002791F803C00CF08F
:101560000F0591F803C00CF0100CBCF1000F03D074
:1015700091F802C04CEA050591F800C0BCF1000FDB
:1015800031D0146800202BE04FF0010C0CFA00F36E
:10159000B1F800C00CEA03069E4220D183004FF050
:1015A0000F0C0CFA03F7BC4305FA03FC4CEA0404E5
:1015B00091F803C0BCF1280F06D14FF0010C0CFAD2
:1015C00000FCC2F814C00AE091F803C0BCF1480F57
:1015D00005D14FF0010C0CFA00FCC2F810C0401C01
:1015E0000828D1D31460B1F800C0BCF1FF0F34DD7E
:1015F000546800202EE000F1080C4FF0010808FAB2
:101600000CF3B1F800C00CEA03069E4221D183001E
:101610004FF00F0C0CFA03F7BC4305FA03FC4CEA3D
:10162000040491F803C0BCF1280F05D100F1080CA7
:1016300008FA0CF8C2F8148091F803C0BCF1480F06
:1016400007D100F1080C4FF0010808FA0CF8C2F8B5
:101650001080401C0828CED35460BDE8F0814FF6BE
:10166000FF710180022181700421C1707047024620
:10167000002093680B400BB1012000E00020704770
:101680000146886880B2704702460020D3680B404C
:101690000BB1012000E0002070470146C86880B20D
:1016A000704701617047416170470AB1016100E014
:1016B00041617047C16070474FF480320A438261D4
:1016C0008161826182698269704702460020434BD2
:1016D00018684FF68073184040EA021008433F4BE9
:1016E000186070473E49C8617047F0B50A4600234C
:1016F00000240021002500F00046B6F1004F02D181
:10170000364EF16901E0354E7168C0F3034583B28E
:1017100000F44016B6F5401F08D121F070612F4E3D
:10172000766826F070662D4F7E6012E000F4801619
:10173000B6F5801F06D1032606FA05F4A14341F051
:10174000706106E0460D360103FA06F6B14341F03A
:10175000706122B1460D360103FA06F6314300F0FE
:101760000046B6F1004F02D11C4EF16101E01B4E64
:101770007160F0BD30B500228B071C0F0F2303FAF8
:1017800004F2164B08338C1053F824309343134C57
:1017900008348D1044F8253023468C1053F824303B
:1017A0008C07240F00FA04F423430C4C08348D10EA
:1017B00044F8253030BD0A49DC310860704700002C
:1017C00000080140000C01400010014000140140DD
:1017D00000180140001C01400020014000000140B1
:1017E00000002042DF48006840F00100DD49086049
:1017F00008464068DC490840DA4948600846006805
:10180000DA490840D74908600846006820F480207B
:1018100008600846406820F4FE0048604FF41F004E
:1018200088607047CF49096821F48031CD4A116042
:101830001146096821F480211160B0F5803F03D082
:10184000B0F5802F0ED106E0C649096841F4803119
:10185000C44A116007E0C349096841F4A021C14AA4
:10186000116000E000BF00BF704710B501460022C4
:10187000002300204A11012A02D1BA4C236806E055
:10188000022A02D1B74C236A01E0B64C636A01F028
:101890001F02012494401C400CB1012000E00020F4
:1018A00010BD38B5002000900024002500BF312075
:1018B000FFF7DBFF05460098401C00900098B0F54C
:1018C000A06F01D0002DF2D03120FFF7CEFF08B17C
:1018D000012400E00024204638BD01460020A14A32
:1018E000106820F0F80040EAC10010607047A0497D
:1018F00008607047024600209A4B586820F47C101C
:1019000042EA01031843974B5860704798490866AC
:10191000704701460020934A506820F003000843B6
:10192000506070478F48406800F00C0070470146D7
:1019300000208C4A506820F0F00008435060704747
:1019400001460020874A506820F4E0600843506058
:10195000704701460020834A506820F4605040EAF6
:10196000C1005060704729B17E4A527A02437D4BD4
:101970005A7204E07B4A527A82437A4B5A72704719
:101980007B49D8310860704701460020754A50688D
:1019900020F440400843506070470021714A2032D3
:1019A0001170704A82F82010012802D004280AD150
:1019B00004E001216B4A2032117005E00521694ADB
:1019C0002032117000E000BF00BF70476949086015
:1019D00070476449096A0143624A11627047654968
:1019E00044390860704730B50021002200240023EC
:1019F0005C4D6D6805F00C0121B1042905D0082962
:101A000023D105E05C4D056022E05B4D05601FE0E1
:101A1000544D6D6805F47012524D6D6805F48034B4
:101A2000022505EB92421CB9544D554305600BE06D
:101A30004C4D6D6805F400351DB1504D55430560A2
:101A400002E04D4D5543056002E04B4D056000BF7F
:101A500000BF444D6D6805F0F0010909484D6B5C0D
:101A60000568DD4045603F4D6D6805F4E061090A99
:101A7000434D6B5C4568DD4085603A4D6D6805F40B
:101A80006051C90A3E4D6B5C4568DD40C560354D0F
:101A90006D6805F44041890B3A4D6B5CC568B5FB38
:101AA000F3F5056130BD29B12E4A526902432D4B31
:101AB0005A6104E02B4A526982432A4B5A617047AB
:101AC00029B1284A92690243264B9A6104E0254ACB
:101AD00092698243234B9A61704729B1214AD269A6
:101AE0000243204BDA6104E01E4AD26982431D4B57
:101AF000DA61704729B11B4AD2680243194BDA6098
:101B000004E0184AD2688243164BDA60704729B164
:101B1000144A12690243134B1A6104E0114A126914
:101B20008243104B1A617047124940390860704770
:101B30000F49C86470470B49C87170470948406A2B
:101B400040F0807007494862704701460020054A0E
:101B500092680A400AB1012000E000207047014964
:101B600088727047001002400000FFF8FFFFF6FE89
:101B7000000042428004424200127A0000093D0007
:101B80002A0000203A00002010B50446FE48844296
:101B900008D10121C014FFF7ADFF0021E014FFF7C9
:101BA000A9FFC4E0B4F1804F08D101210846FFF736
:101BB000AEFF00210120FFF7AAFFB8E0F3488442FE
:101BC00008D101210220FFF7A2FF00210220FFF728
:101BD0009EFFACE0EE48844208D101210420FFF7CB
:101BE00096FF00210420FFF792FFA0E0E94884421D
:101BF00008D101210820FFF78AFF00210820FFF704
:101C000086FF94E0E448844208D101211020FFF7C8
:101C10007EFF00211020FFF77AFF88E0DF48844232
:101C200008D101212020FFF772FF00212020FFF7BB
:101C30006EFF7CE0DA48844208D101214014FFF7AE
:101C400059FF00216014FFF755FF70E0D54884422A
:101C500009D10121C804FFF74DFF00214FF40020F6
:101C6000FFF748FF63E0D048844209D1012108050D
:101C7000FFF740FF00214FF48010FFF73BFF56E0D5
:101C8000CA48844209D101214805FFF733FF0021EA
:101C90004FF40010FFF72EFF49E0C548844208D1F9
:101CA00001214020FFF733FF00214020FFF72FFFE5
:101CB0003DE0C048844208D101218020FFF727FF82
:101CC00000218020FFF723FF31E0BB48844208D188
:101CD00001218015FFF71BFF0021A015FFF717FF5B
:101CE00025E0B648844209D101210804FFF702FF2C
:101CF00000214FF48030FFF7FDFE18E0B048844229
:101D000009D101214804FFF7F5FE00214FF400300E
:101D1000FFF7F0FE0BE0AB48844208D101218804B4
:101D2000FFF7E8FE00214FF48020FFF7E3FE10BD2F
:101D300000220288944B98420ED0994B98420BD0C7
:101D4000B0F1804F08D0914B984205D0904B98420B
:101D500002D0904B984204D14FF68F731A404B88B3
:101D60001A438D4B984207D08C4B984204D04FF6C3
:101D7000FF431A40CB881A4302808B8883850B88E7
:101D80000385814B98420BD0854B984208D08B4BF2
:101D9000984205D08A4B984202D08A4B984201D192
:101DA0000B7A038601238382704770B500240022DA
:101DB0000023058C4FF6FE7635400584028C83881F
:101DC000048B4FF68F752C40B51E2C400D882C438C
:101DD000751E2A400D892A434D882A436A4DA84220
:101DE0000BD06F4DA84208D0744DA84205D0744D59
:101DF000A84202D0734DA84213D14FF6F7752A407E
:101E00004D892A434FF6FB752A408D882A434FF6A9
:101E1000FF652B404FF6FF552B408D892B43CD8915
:101E20002B4383800483CD888586028470BD70B582
:101E3000002400220023058C4FF6EF763540058400
:101E4000028C8388048B48F6FF752C404FF6FF45C3
:101E50002C400D884FF6FF7606EA05252C434FF6F9
:101E6000DF752A400D8906EA05152A434D8806EAE2
:101E700005152A43444DA84202D0494DA8421DD120
:101E80004FF67F752A404D894FF6FF7606EA051515
:101E90002A434FF6BF752A408D8806EA05152A4366
:101EA0004FF6FF352B404FF2FF752B408D8906EA28
:101EB00085052B43CD8906EA85052B438380048362
:101EC000CD880587028470BD70B5002400220023F0
:101ED000058C4FF6FF6635400584028C8388848B21
:101EE0004FF68F752C404FF6FC752C400D882C4317
:101EF0004FF6FF552A400D894FF6FF7606EA052575
:101F00002A434D8806EA05252A431F4DA84202D0E0
:101F1000234DA8421DD14FF2FF752A404D894FF63F
:101F2000FF7606EA05252A434FF6FF352A408D88BD
:101F300006EA05252A434EF6FF752B404DF6FF7540
:101F40002B408D8906EA05152B43CD8906EA051538
:101F50002B4383808483CD888587028470BD70B5D0
:101F6000002200230024058C4EF6FF7635400584C0
:101F7000038C8488828B48F6FF752A404FF6FF4514
:101F80002A400D8820E00000002C014000040040A1
:101F900000080040000C0040001000400014004009
:101FA00000340140004C0140005001400054014009
:101FB00000180040001C004000200040004001408C
:101FC00000440140004801404FF6FF7606EA05252F
:101FD0002A434DF6FF752B400D8906EA05352B4344
:101FE0004D8806EA05352B43FA4DA84202D0FA4D3A
:101FF000A84208D14BF6FF752C408D894FF6FF762D
:1020000006EA85152C4384808283CD88A0F8405051
:10201000038470BD828B4FF2FF331A408283828B20
:102020004FF6FF7303EA01231A4382837047F0B52A
:102030000C461546002200210026078C4EF6FF7C38
:1020400007EA0C070784828B018C4FF6FF7707EABB
:10205000043640F6FF473A404FF6FF7707EA052778
:102060003A434FF6FF7707EA03373A43D94FB8426E
:102070000ED0D94FB8420BD0B0F1804F08D0D74F17
:10208000B84205D0D64FB84202D0D64FB84206D19A
:102090004DF6FF77394046F48057394305E047F65F
:1020A000FF57394044F48057394382830184F0BD9F
:1020B000828B4FF6F3731A408283828B0A438283AA
:1020C0007047F0B50C461546002200210026078C0B
:1020D0004FF6FF6C07EA0C070784828B018C4FF6E2
:1020E000FF7707EA04264FF60C773A404FF6FF7762
:1020F00007EA03172F433A43B64FB8420ED0B64F04
:10210000B8420BD0B0F1804F08D0B44FB84205D0E0
:10211000B34FB84202D0B34FB84206D14FF6FF5783
:10212000394046F48077394305E04FF2FF57394094
:1021300044F48077394382830184F0BD028B4FF2EF
:10214000FF331A400283028B4FF6FF7303EA012329
:102150001A4302837047F0B50C4615460022002151
:102160000026078C4FF6EF7C07EA0C070784028BEA
:10217000018C4FF6FF7707EA041640F6FF473A4016
:102180004FF6FF7707EA03373A434FF6FF7707EA40
:1021900005273A438F4FB8420ED08F4FB8420BD02D
:1021A000B0F1804F08D08D4FB84205D08C4FB84267
:1021B00002D08C4FB84206D14FF6DF77394046F057
:1021C0001007394305E04FF65F77394044F01007B8
:1021D000394302830184F0BD028B4FF6F3731A403A
:1021E0000283028B0A4302837047F0B50C46154602
:1021F00000220021068C4FF6FE773E400684028BBB
:10220000018C4FF60C7632407E1C06EA03162E43F4
:102210003243704EB0420ED06F4EB0420BD0B0F190
:10222000804F08D06D4EB04205D06D4EB04202D006
:102230006C4EB04206D14FF6FD76314044F00106B7
:10224000314305E04FF6F576314044F00106314365
:1022500002830184F0BD70B505460C465D48854299
:102260000ED05D4885420BD0B5F1804F08D05B4859
:10227000854205D05A48854202D05A48854200D14D
:1022800000E000BF208850B92389A28861882846D1
:10229000FFF7ABFFE1882846FFF79EFF25E0208887
:1022A00004280AD12389A28861882846FFF753FFB2
:1022B000E1882846FFF742FF17E0208808280AD166
:1022C0002389A28861882846FFF7FBFEE18828461B
:1022D000FFF7EEFE09E02389A28861882846FFF710
:1022E000A6FEE1882846FFF795FE70BD2DE9F04176
:1022F00005460C4600260127608808B9022600E042
:102300000026A088012801D1022700E001272088AB
:10231000A0B92389A28861882846FFF766FFE18873
:102320002846FFF759FF23893A4631462846FFF7EA
:1023300012FFE1882846FFF701FF13E02389A288F6
:1023400061882846FFF707FFE1882846FFF7F6FE79
:1023500023893A4631462846FFF747FFE188284659
:10236000FFF73AFFBDE8F0810A884B881A438B8853
:102370001A43CB881A430B891A434B891A438B891A
:102380001A43A0F8442070474FF6FF718180002166
:102390000180C1804180017270470021018041802D
:1023A0008180C180018141818181C181704700218B
:1023B00001804180012181800021C180018170471D
:1023C0000021018041808180C18001814181818122
:1023D00070470000002C0140003401400004004020
:1023E00000080040000C004021B1028842F00102C8
:1023F000028004E002884FF6FE731A4002807047A4
:1024000031B1B0F8442042F40042A0F8442005E085
:10241000B0F84420C2F30E02A0F8442070471AB16D
:1024200083890B43838102E083898B4383817047D7
:102430008182704741EA0203A0F8483070471AB120
:1024400083890B43838102E083898B4383817047B7
:1024500001894FF6F8721140018170470A46002148
:1024600001894FF68F73194011430181704730B5D0
:1024700004460D4629462046FFF7F0FF208940F02C
:102480000700208130BD2DE9F04104460D46164677
:102490001F46602D06D13B46012231462046FFF7FC
:1024A0005AFE05E03B46012231462046FFF79DFEDD
:1024B00029462046FFF7D2FF208940F007002081FF
:1024C000BDE8F08130B50C4600210189C9B24FF654
:1024D000FF7505EA0325154325432943018130BDD6
:1024E0002DE9F04105460E4617469846002443461E
:1024F0003A4631462846FFF7E5FF2C894FF6F8703B
:10250000044044F007044FF68F70044044F0700418
:102510002C81BDE8F081F0B504460D4616461F46F5
:102520003B46324629462046FFF7CCFF208940F43F
:1025300080402081F0BD0185828270470A460021DB
:1025400001884FF68F731940114301807047F0B531
:102550000C4615461E460021002200230189028BED
:10256000038C4FF6F877394021434FF6FC473A4049
:1025700040F201173A434FF6DD773B404FF6FF77C5
:1025800007EA06172F433B43018102830384F0BD12
:102590000A460021018B4FF68F73194011430183C6
:1025A00070470A460021018B48F6FF7319404FF629
:1025B000FF7303EA02231943018370470A4600218F
:1025C000818B4FF68F7319401143818370470A4600
:1025D0000021818B48F6FF7319404FF6FF7303EA21
:1025E000022319438183704721B1028842F080029F
:1025F000028004E002884FF67F731A400280704721
:1026000021B1828842F00402828004E082884FF681
:10261000FB731A408280704721B1828842F0080221
:10262000828004E082884FF6F7731A4082807047F8
:1026300021B1828842F00102828004E082884FF654
:10264000FE731A40828070470A460021018B4FF6C4
:10265000F77319401143018370470A460021018B2B
:102660004FF2FF7319404FF6FF7303EA0223194339
:10267000018370470A460021818B4FF6F77319409A
:102680001143818370470A460021818B4FF2FF730B
:1026900019404FF6FF7303EA022319438183704701
:1026A0000A460021018B4FF6FB7319401143018349
:1026B00070470A460021018B4FF6FF3319404FF651
:1026C000FF7303EA02231943018370470A4600217E
:1026D000818B4FF6FB7319401143818370470A4683
:1026E0000021818B4FF6FF3319404FF6FF7303EA49
:1026F00002231943818370470A460021018B4FF65C
:102700007F7319401143018370470A460021018BF2
:10271000C1F30E014FF6FF7303EA0223194301834D
:1027200070470A460021818B4FF67F731940114391
:10273000818370470A460021818BC1F30E014FF659
:10274000FF7303EA02231943818370470A4600217D
:10275000018C4FF6FD7319401143018470470A46FE
:102760000021018C4FF6F773194011430184704723
:102770000A460021018C4FF6DF7319404FF6FF73B4
:1027800003EA02131943018470470A460021018CB1
:102790004FF67F7319404FF6FF7303EA0213194394
:1027A000018470470A460021018C4FF6FF531940FF
:1027B0004FF6FF7303EA02231943018470470A4668
:1027C0000021018C4FF2FF7319404FF6FF7303EAAB
:1027D00002231943018470470A460021018C4DF6FB
:1027E000FF7319404FF6FF7303EA02331943018464
:1027F000704730B5002301248C40A3B2048C9C4365
:102800000484048C02FA01F5ADB22C43048430BD7B
:1028100030B5002304248C40A3B2048C9C43048470
:10282000048C02FA01F5ADB22C43048430BD70B5BE
:102830000346002000241846183001258D40ACB214
:102840001D8CA5431D8409B1082909D100EB610045
:10285000056825F0700505600568154305600EE004
:102860000D1FC5F34E052844056825F4E0450560B5
:1028700005684FF6FF7606EA02263543056070BD0F
:1028800021B1028842F00202028004E002884FF681
:10289000FD731A400280704721B1028842F00402A1
:1028A000028004E002884FF6FB731A4002807047F2
:1028B00021B1828842F08002828004E082884FF653
:1028C0007F731A408280704702884FF6F7731A4070
:1028D000028002880A430280704782884FF68F7315
:1028E0001A40828082880A438280704702894FF6AC
:1028F000F8731A40028102890A43028170470289F3
:102900004FF67F731A40028102890A4302817047A1
:102910008184704781857047818670470187704741
:1029200081877047A0F84010704702884FF6FF4338
:102930001A40028002880A43028070470146888E4E
:1029400070470146088F70470146888F70470146DF
:10295000B1F8400070470146888C70470146088DE9
:10296000704702460020138A0B400BB1012000E0A3
:1029700000207047CA430282704730B502460020EB
:1029800000230024158A05EA0103958905EA01045C
:1029900013B10CB1012000E0002030BDCA43028217
:1029A0007047000010B50446FB48844209D101215C
:1029B0008803FFF79FF800214FF48040FFF79AF853
:1029C00032E0F648844209D101214804FFF79FF81C
:1029D00000214FF40030FFF79AF825E0F0488442D8
:1029E00009D101218804FFF792F800214FF48020DB
:1029F000FFF78DF818E0EB48844209D10121C804A3
:102A0000FFF785F800214FF40020FFF780F80BE076
:102A1000E548844208D101210805FFF778F8002134
:102A20004FF48010FFF773F810BD2DE9F04786B022
:102A300005460E460024A24600BFA1460027B089E5
:102A400000B100BF2F462C8A4CF6FF700440F0887E
:102A500004432C82AC894EF6F3100440B0883189CF
:102A60000843718908430443AC81AC8A4FF6FF40A8
:102A70000440B0890443AC8201A8FEF7B4FFC64805
:102A8000874202D1DDF810A001E0DDF80CA0A88992
:102A900000F4004040B10AEBCA0000EB0A103168B4
:102AA0004900B0FBF1F807E00AEBCA0000EB0A109E
:102AB00031688900B0FBF1F86420B8FBF0F0040144
:102AC0002009642101FB1089A88900F4004040B16D
:102AD000322000EBC900B0FBF1F000F00700044326
:102AE00008E0322000EB09106421B0FBF1F000F0A7
:102AF0000F0004432C8106B0BDE8F0874FF4165157
:102B0000016000218180C18001810C21418100216F
:102B10008181704710B502460020108A4FF2FF03F2
:102B200018400B884C8823438C882343CC8823434C
:102B30001843108210BD0021018041808180C18036
:102B4000704721B1828942F40052828104E0828977
:102B50004DF6FF731A4082817047F0B5034600249A
:102B600000260025002040F66A17B94200D100BFB8
:102B70001846C1F3421401F01F06012707FA06F5B3
:102B8000012C01D10C3004E0022C01D1103000E006
:102B900014301AB107682F43076002E00768AF439B
:102BA0000760F0BD1AB1838A0B43838202E0838AF7
:102BB0008B4383827047028A4FF6F0731A40028279
:102BC000028A0A430282704782894FF2FF731A40D9
:102BD000828182890A438281704721B1828942F0D1
:102BE0000202828104E082894FF6FD731A408281DD
:102BF0007047028A4FF6DF731A400282028A0A4344
:102C00000282704721B1028A42F48042028204E0CB
:102C1000028A4BF6FF731A4002827047C1F3080222
:102C20008280704701468888C0F308007047818918
:102C300041F0010181817047028BD2B20283028B85
:102C400042EA012202837047028B02F47F42028330
:102C5000028B0A430283704721B1828A42F020022C
:102C6000828204E0828A4FF6DF731A4082827047C4
:102C700021B1828A42F01002828204E0828A4FF6F9
:102C8000EF731A408282704721B1828A42F00802B3
:102C9000828204E0828A4FF6F7731A40828270477C
:102CA00021B1828942F40042828103E08289C2F329
:102CB0000E028281704721B1828A42F400628282D0
:102CC00004E0828A4FF2FF731A4082827047828A40
:102CD0004FF6FB731A408282828A0A4382827047CF
:102CE00021B1828A42F00202828204E0828A4FF697
:102CF000FD731A408282704702460020B1F5007FC2
:102D000000D100BF13880B400BB1012000E0002070
:102D1000704701F40072B2F5007F00D100BFCA43D2
:102D20000280704770B50246002400230025002071
:102D300040F66A16B14200D100BFC1F3421501F05E
:102D40001F03012606FA03F3012D02D196893340B1
:102D500006E0022D02D1168A334001E0968A334004
:102D60000C12012606FA04F41688344013B10CB193
:102D7000012000E0002070BD10B50022002340F6C5
:102D80006A14A14200D100BF0A1201249440A3B2E8
:102D9000DC43048010BD00000038014000440040C6
:102DA00000480040004C00400050004070470000C8
:102DB0000FB4044910B503AA029800F005F910BC3D
:102DC0005DF814FB240000202DE9F04106460024A4
:102DD00010687529314616A510D0AFF30080002881
:102DE00002DA404213A507E031688A0701D512A52F
:102DF00002E0490704D511A5012401E0AFF30080EA
:102E000000210A2206F1240709E0B0FBF2FCB0FB26
:102E1000F2F302FB1C00303078541846491C00289D
:102E2000F3D123462A463046BDE8F04100F073B89E
:102E3000000000002D0000002B000000200000001A
:102E40002DE9F0410F460546002028622846E96832
:102E5000884770B3252805D0D5E901219047286A15
:102E6000401CF2E7E9682846002688476C2804469B
:102E70000AD0682C08D04C2C35D06A2C31D0742C58
:102E800031D07A2C2FD016E0E968064628468847CC
:102E9000B042044608D16C2E23D04FF480662846F9
:102EA000E9688847044606E06C2E03D04FF480762C
:102EB00001E01EE04026E4B1A4F14100192802D847
:102EC000203446F400663A46214628462E60FDF737
:102ED00069F960B1012808D0FF1D27F007070837FE
:102EE000B4E78026DBE70026D9E73F1DAEE72046A2
:102EF000B2E7286ABDE8F0817047704770477047B5
:102F000010B500F073F8006810BD10B5044600F06D
:102F10006DF8046010BD2DE9F0470D4699469246C4
:102F2000044600F124080168880604D5E06921F010
:102F30001001216000E00120A84201DD471B00E0F4
:102F40000027A1697A1902EB0900081AA06120780C
:102F5000C00602D42046AFF30080002608E0D4E982
:102F600001211AF806009047206A401C761C206256
:102F70004E45F4DB2078C0060AD52046AFF300802A
:102F800006E0D4E9012130209047206A401C2062ED
:102F9000381EA7F10107F4DC07E0D4E9012118F895
:102FA00005009047206A401C2062281EA5F10105FB
:102FB000F3DC2046AFF300802078000602D5022023
:102FC000BDE8F0870120FBE7074B70B50D467B4459
:102FD00000F015F80446284600F024F810B14FF030
:102FE000FF3070BD204670BD61E2FFFF00487047B2
:102FF0005401002001694A1C02610878704700B53D
:103000008FB0CDE901310021059105497944CDE921
:10301000031011466846FFF713FF0FB000BD000014
:10302000E5FFFFFF007B00F080007047004870471D
:10303000540100207546FFF7F9FFAE4605006946CA
:10304000534620F00700854618B020B5FEF79CF9DE
:10305000BDE820404FF000064FF000074FF0000899
:103060004FF0000B21F00701AC46ACE8C009ACE81A
:10307000C009ACE8C009ACE8C0098D4670470446F9
:10308000AFF300802046FDF79FF8490050EAC120C9
:1030900018BF04204A0D18BF40F0010040F2FF7233
:1030A000B2EB515F08BF40F00200012808BF0520C5
:1030B00070472DE9F0414F1E00EBC7010446D1E9EE
:1030C000000115461E4637F006020DD02A4633464B
:1030D00001F000F87F1E04EBC703D3E9002300F0E2
:1030E00091FD37F00602F1D1022F25D0042F13D025
:1030F000062F18BFBDE8F0812A46334600F0EAFFEC
:10310000D4E90A2300F07EFD2A46334600F0E2FFB0
:10311000D4E9082300F076FD2A46334600F0DAFFB2
:10312000D4E9062300F06EFD2A46334600F0D2FFB4
:10313000D4E9042300F066FD2A46334600F0CAFFB6
:10314000D4E9022300F05EFD2A46334600F0C2FFB8
:10315000D4E90023BDE8F04100F054BD002213463D
:103160001046014900F00ABE0000F03F00F04ABDE1
:10317000002213461046114600F000BE40F2013214
:1031800000204FF0E04101F0ECBA0000024A0020BC
:10319000110701F0E6BA000001FDFFFF2DE9F04D37
:1031A00016460F4694B01C4621F0004123F0004221
:1031B000002814BF4FF0010C4FF0000C0CEB470C33
:1031C000FE4B0CEB03054FEA630C65452BD3350032
:1031D00018BF012505EB44051D44F94B9D4222D340
:1031E000F84B52EA060C02D09F4205D148B914B000
:1031F00000201946BDE8F08D002808BF4FF0000CF4
:1032000001D04FF0010C0CEB470313F5001F0AD857
:10321000002E14BF4FF0010C4FF0000C0CEB4403D8
:1032200013F5001F07D914B0324623463946BDE8CE
:10323000F04DFFF79BBFDFF890834FF0000A002F9F
:10324000B8BF424523DAE14B9A42A8BF4FF0020AC9
:103250001DDADC4B93421ADCDD4B03EB2253142BBB
:1032600008DDC3F1340C26FA0CF303FA0CFCB44568
:103270000DD108E05EB9C3F1140C22FA0CF303FA85
:103280000CFC944503D103F00103C3F1020A51EA97
:1032900000031BD1002C19DA002F18BFBAF1020F5E
:1032A00002D0BAF1010F07D00220FFF72EFE14B0B2
:1032B000BDE8F04DFFF752BF0220FFF726FEFFF7F3
:1032C0004DFF14B081F00041BDE8F08D330070D1A6
:1032D000424525D107F1804212F5801201BF002836
:1032E0000020B84914B008BFBDE8F08DB548884249
:1032F00007DC002CA1BF1846214614B0BDE8F08DB4
:1033000007E0002CBFBF184684F0004114B0BDE8B0
:10331000F08DB0497944D1E9000114B0BDE8F08DD9
:10332000DFF8A0C262452AD1002C24DA39B1414528
:1033300017D1002804BF002002461CD106E040B18E
:103340000220FFF7E2FDFFF719FF0A46394600F0B9
:10335000D7BA9D4A394614B0002062F31E01BDE879
:10336000F08D08DA14B03B46BDE8F04D024600206F
:10337000614600F003BD14B03946BDE8F08D41450B
:1033800017DAB4F1804F0CD0A4F10053B3F1FF531E
:103390000FD13B1E0DDB14B01946BDE8F04D00F017
:1033A000D9BB3B4614B00246BDE8F04D194600F0CB
:1033B00091BE050027F000433AD1E1B1414537D134
:1033C000002F06DD002CA1BF0020414614B0BDE84F
:1033D000F08D002F01DD002C1FDB002F16DA002CF2
:1033E00014DBBAF1010F4FF0000014BF76497A499F
:1033F00014B0BDE8F08DBAF1020F18BF002F0CD049
:10340000BAF1010F09D1002F07DA0BE0002FB8BF86
:10341000002C0DDABAF1010F04D0002014B00146DF
:10342000BDE8F08D14B000204FF00041BDE8F08DF4
:103430004FF0010808EBE77CCDF814C05CEA0A0CF9
:103440000DD0DFF898C162457EDDDFF894C1654B91
:10345000624512DD8B420ADB002C18DB23E00120E1
:10346000FFF753FD14B0BDE8F04DFFF781BE554A9C
:103470008A4202DC002C0ADC15E0994202DA002CB8
:1034800011DA04E04F4B994219DD002C0BDD0220CC
:10349000FFF73BFDFFF772FE4B4A14B061F31E02CB
:1034A0001146BDE8F08D0220FFF72FFDFFF76EFEFD
:1034B000444A14B061F31E021146BDE8F08D0022AB
:1034C000394601F02DF807460D466FF0010201F074
:1034D00048F94FF05532444B00F030FF3A462B4646
:1034E00000F0F8FD0022414B00F028FF80468B469B
:1034F0003A462B461046194600F0ECFD42465B4624
:1035000000F0E8FD88460E904FF0C042384B384638
:10351000294600F0DFFD83460091364A344B414690
:103520000E9800F0D7FD80460191334A334B384660
:10353000294600F0CFFD4246019B00F0F1FF0D4609
:1035400002460B460C9000E011E05846009900F04E
:1035500059FB002788465A463846009B00F0E0FF9A
:103560002B460C9A00F0EAFE024600F079B90020E2
:10357000B1F5801F07DA35222846194601F0F1F827
:1035800005466FF0340000EB2150A0F2FF300190AF
:10359000C1F3130040F07F6141F04051029118499E
:1035A0008842D8BF4FF0000B35DD16498142C8BFB5
:1035B0004FF0010B2FDC4FF0000B25E0FFFF1F0049
:1035C000FFFF0F000000F03F0000F07F00004043CD
:1035D00001FCFFFF601500000000F0FF0000E0416B
:1035E0000000F043FFFFEF3F5555D53F0000E03F9F
:1035F0004715F73FFE822B6544DF5DF80BAE543E66
:103600008E9803007AB60B000198401C0190029836
:10361000A0F580100290FF480299784400EBCB009F
:103620000991D0E9002328460B93129200F078FF0D
:1036300000910A9028460B9B129A099900F0E2FA31
:1036400002460B460020F44900F098FBCDE90C013E
:103650000B46024600990A9800F03CFD0690EF48A0
:103660008846002778440299006810904FF0005077
:1036700040EA610000EB8B4000F5002102910B9BBA
:10368000129A109800F04CFF2A46099B00F056FE53
:103690003A46434600F01EFD0891129038464146D6
:1036A000029B109A00F016FD009B0A9A00F046FE5D
:1036B000089B129A00F034FFDDE90C2300F00AFDAC
:1036C0000B91069A129043461046194600F002FDEF
:1036D00005460246D2480B460A9106217844FFF778
:1036E000E8FC0A9B2A46089102901046194600F011
:1036F000F1FC089B029A00F0EDFC05460991434657
:1037000038461946069A00F07DFA0B9B129A00F093
:10371000E1FC2A46099B00F075FACDE908013A461A
:1037200043461046194600F0D5FC0A910022BD4BD5
:10373000009000F067FADDE9082300F063FA0D4617
:103740003A46B84B384600F0EBFE0A9B009A00F070
:10375000E7FEDDE9082300F0F1FDCDE908013A4676
:103760002B461046414600F0B5FC00910A90DDE979
:1037700008014346069A00F0ADFC069088462B46A9
:103780003A460B99129800F0A5FC4346069A00F0C1
:1037900039FA80460B4602460D9100990A9800F0CE
:1037A00031FA00200F460546009B0A9A00F0B8FE49
:1037B00042460D9B00F0C2FD88460E904FF06042DD
:1037C000994B2846394600F085FC02910090974AB3
:1037D000954B41460E9800F07DFC80460391944A3B
:1037E000944B2846394600F075FC4246039B00F096
:1037F00009FA914A7A4402EBCB03D3E9002300F0A3
:1038000001FA05460791019800F010FC0C90039115
:103810002A46079B0299009800F0F4F9874A7A44F7
:1038200002EBCB03D3E900239346019300F0EAF9BE
:10383000039B0C9A00F0E6F9002788463846039B64
:103840000C9A00F06DFE5A46019B00F069FE029B47
:10385000009A00F065FE2A46079B00F06FFD0246C5
:103860000020069005986C4DAAF10103184301D180
:10387000734D069000200B4604903046214600F020
:1038800029FC82468B46234630461946049A00F0AE
:1038900047FE3A46434600F01DFC52465B4600F0A8
:1038A000B1F906468A463A4643462146049800F056
:1038B00011FC04460F463246534600F0A3F9614A14
:1038C0008B46914221DBABEB020353EA000210D19D
:1038D00022463B4600F024FE804603915A4A5B4B49
:1038E0003046514600F08EF94246039B00F0F0FC52
:1038F00027D20220FFF709FBFFF740FC0A462946C2
:1039000014B062F31E01BDE8F08D514B2BF0004264
:103910009A4216D34F4A0BEB020353EA000208D136
:1039200022463B4600F0FCFD3246534600F0D0FCF8
:1039300007D80220FFF7E9FAFFF728FC0A462946D4
:10394000DEE72BF000404449444A01EB20514FF0A0
:103950000008824223DA481C4FF4801121FA00F05B
:1039600058443F4AC0F30A517A443E4BA1F2FF311A
:10397000CB4020EA0303C0F3130040F4801CC1F1E4
:10398000140012682CFA00F8BBF1000FB8BFC8F1A0
:1039900000082046394600F0C3FD04460F46224683
:1039A0003B463046514600F02DF94FF0000B5A4689
:1039B0002D4B5846039100F08DFB00910A902B4A45
:1039C0002B4B5846039900F085FB04910290224648
:1039D0003B465846039900F0A3FD3246534600F09B
:1039E000ADFC244A244B00F075FB049B029A00F0C6
:1039F00009F907468A46009B0A9A00F003F9044633
:103A00000E46009B0A9A00F08BFD3A46534600F0A2
:103A100095FC33E0D21100000000F03F10120000CE
:103A2000401100000000084009C7EE3FFD033ADCEA
:103A3000F5015B14E02F3EBE18100000DE0F000001
:103A40000000F0BF00009040FE822B654715973CB8
:103A500000CC904000346F3F01FCFFFF0000E03FCE
:103A60000C0F0000FFFF0F00432EE63F396CA80C3F
:103A7000615C20BEEF39FAFE422EE63F0746224641
:103A800033460F911046194600F024FB8346024648
:103A90002E488A460B4605217844FFF70AFB5A4612
:103AA000534600F017FB2246334600F047FC82469F
:103AB0008B463A46204631460F9B00F00BFB3A46B8
:103AC0000F9B00F09FF80F460A9000224FF08043B2
:103AD0005046594600F024FD0391009052465B4643
:103AE0002046314600F0F6FA039B009A00F046F9B2
:103AF0003B460A9A00F014FD2246334600F010FDC2
:103B00000022134B00F01AFC0E46044601EB08514C
:103B10000815002810DC42462046314600F021FE00
:103B2000FFF7B3FA042808BFFFF730FB42462046F0
:103B3000314600F016FE044606980B4614B02246A5
:103B40002946BDE8F04D00F0C5BA0000B40D0000F4
:103B50000000F03F2DE9F04106460F4600F0FAFB69
:103B600004000D4618BF0120284320F00040C0F19A
:103B70007F6000F1E040C00F0ED0301C18BF012064
:103B8000384320F00040C0F17F6000F1E040C00FFA
:103B900004BF0120FFF7B9F920462946BDE8F081AE
:103BA00021F00042A2F16052B2F5801F01F0004303
:103BB00028BFD2F17F6C0BD95FEA001C43EAC20236
:103BC00042EB507018BF704728BF20F001007047CB
:103BD000B2F5801FBCBF184670474FEA410C1CF578
:103BE000001F02D2084600F085BD70B500F01CFB36
:103BF00000000089FFF7F6BF4FF00040A0F58000FD
:103C00007047000010B591EA030F48BF83F00043EE
:103C100000F18E84841A71EB030C05D2121943EB68
:103C20000C03001B61EB0C01DFF824E14FEA115497
:103C3000A4EB135C1EEA430F18BF9EEA445F73D0E7
:103C400023EA0E03DCF1200E21EA045143F4801331
:103C500032D322FA0CFE10EB0E0023FA0CFE41EBDD
:103C60000E01CCF1200E03FA0EFE10EB0E0051F106
:103C70000001B1F5801FCCF1200E32D201EB0451CE
:103C800012FA0EF2BDE8104058BF7047401C38BF12
:103C90005FEA420218BF7047002814BF20F00100FD
:103CA00041F100014FEA410313F5001F38BF70478F
:103CB000A1F1C04100F006BB012A43EB0302ACF1C5
:103CC000200CDCF11F0E32BF4FF0000E23FA0CF374
:103CD00010EB030041EB0451B4EB115FD0D0A1EB2A
:103CE000045101F5801149085FEA300001EB0451ED
:103CF0000ED350F1000038BF12FA0EFE08D1BDE815
:103D00001040C9E7401C38BF5FEA4202CAD1C3E78E
:103D1000BDE810404FEA410313F5001F38BF70475C
:103D2000A1F1C04100F0CEBA9EEA445F08D011EA8A
:103D30005E0FBDE8104004BF01F000410020704755
:103D4000BDE8104070B500F06FFA00BF64FBBE3EE6
:103D50000000E0FF02494FF0000000F0D0BC00BFBF
:103D60000000F87F491058BFC1F140415B1058BFB7
:103D7000C3F140438B42EFF3008070472DE9C0410F
:103D800030B4DFF8A0C23CEA111418BF3CEA1314A7
:103D900000F0EC8081EA03051CEA111444EAD574B2
:103DA00018BF1CEA131500F0C780A4EB05044FF000
:103DB000004545EAC12145EAC32341EA505143EA9F
:103DC000525304F17F74994204F500344FEAC02045
:103DD0004FEAC22208BF904200F09C804FEA136570
:103DE0000FF24016765D4FEA134506FB05F7C7F163
:103DF000807706FB07F74FEAD737A7FB03687642C1
:103E0000C8F58038A7FB06CE38BFA8F1010807FB2C
:103E100008E64FF0000EA6FB028CE6FB03CEDCF1B9
:103E2000000CCEF1004E38BFAEF1010EA6FB0C58CF
:103E30004FF000074FF00005E6FB0E87A1FB08C618
:103E4000A0FB07CE16EB0E0645F10005E1FB07656A
:103E500015F1E04E7EBFA4F580345FEA46066D4161
:103E600016F1800745F100054FEA17274FEA06666D
:103E700047EA0567A6F1DE46B6F1805F4FEA1525F1
:103E80001FD9384624F0010C05EBC471BCF1FE6F5C
:103E900001EB0C1102D8F0BCBDE8008124425CBFEC
:103EA00001F5801E9EEAC47F02D4F0BCBDE800810B
:103EB000244238D4F0BCA1F1C041BDE8004100F07B
:103EC00001BA4FEAD22242EA43524FEAD323A7FB78
:103ED00002864FEAD02040EA415007FB03661EEA03
:103EE0000E0F4FEAD12105FB026658BFA6EB005624
:103EF000B6EB00564FEA520E4EEAC37E18EB0E0E9A
:103F000056EB530EBDD518EB02085E417F1C55F1F0
:103F10000005B6E74FF480154FF000074FF000069C
:103F20004FF00008ADE7F0BC4FF0000001F1C041D8
:103F300001F00041BDE8008111EA0C1F0CEA1315E5
:103F400000D00CE013EA0C1F00F025804FF00000B9
:103F5000F0BC81EA030101F00041BDE80081F0BC42
:103F6000BDE8004181EA030100F0ACB9F0BCBDE856
:103F7000004170B500F058F9097EFC3E00F007B82A
:103F800081EA03014FF0000001F00041704781EA2F
:103F9000030100F097B9F0BCBDE800414FF000000C
:103FA00021497047FFFDFBF9F7F5F4F2F0EEEDEB78
:103FB000E9E8E6E4E3E1E0DEDDDBDAD8D7D5D4D327
:103FC000D1D0CFCDCCCBCAC8C7C6C5C4C2C1C0BF73
:103FD000BEBDBCBBBAB9B8B7B6B5B4B3B2B1B0AF79
:103FE000AEADACABAAA9A8A8A7A6A5A4A3A3A2A15D
:103FF000A09F9F9E9D9C9C9B9A9999989797969518
:1040000095949393929191908F8F8E8E8D8C8C8BB3
:104010008B8A89898888878786858584848383823B
:10402000828181800000FF070000F87F10F00042CD
:1040300048BF4042B0FA80F310FA03F10AD0C3F14E
:104040001D0303F580634FEA415002EB035202EB7C
:10405000D12170474FF000007047000051EA030C77
:1040600017D41CF5801F58BFBCF5801F00F10680D7
:10407000994218BF704708BF9042704707D711F5A3
:10408000801F58BF13F5801F19D499427047894289
:1040900070471CF5801F08D5BCF5801FF7D58B42F3
:1040A00018BF704708BF824270474FF4001C1CEBDA
:1040B000410F38BF1CEB430F01D28B42704770B5E4
:1040C00000F0B2F8922449004FF000514FF08053B5
:1040D000FFF748BEDFF848C170B51CEA111E1EBFCD
:1040E0001CEA13159EEA0C0F95EA0C0F00F06F8086
:1040F00081EA030423EA4C134EEAD47E21EA4C11F0
:1041000041F4801143F48013AE44A1FB024CA0FBA8
:104110000365AEF17F7E361955EB0C05A1FB034C10
:104120004CF10003A0FB021C16EB0C06654153F199
:104130000003094218BF46F0010613F4007F0BD1BB
:104140004FEA03314FEA0530340341EA155140EAA2
:1041500016506FF003020AE04FEAC3214FEAC52070
:10416000F40241EA555140EA56506FF0020202EB68
:104170002E4201EB025585EACE710AD05FEA440C6B
:1041800018BF24F0004450F1000041F1000120EA82
:10419000D47040F2FE7C624500D270BDA84214BFCC
:1041A0004FF080444FF04044002E08BF0024BEF181
:1041B000806FA8BFA1F1C041BDE8704080F282804D
:1041C0004FF0000001F1C04101F0004170479EEA4C
:1041D0000C0F0CEA131518BF95EA0C0F06D04FF020
:1041E000000081EA030E0EF0004170BD00F01CF8E3
:1041F0008900013E00F007B800F009B84FEA430C0F
:104200005FEA5C5C08D081EA030100F05BB84FEA2A
:10421000410C5FEA5C5CF6D14FF000000149704749
:104220000000FF070000F87F0EF1020E2EF0030ED3
:104230005EF8046B364205D4012A43EB030515F5FD
:10424000001F12D8012841EB010C1CF5001F0CD8EF
:104250000ED14FEAD17C15F5001F0CEB4C0C0CF184
:10426000020C08BF4CEBD37C04E04FF0080C01E0DB
:104270004FEAD37C0CEB4C0526FA05F606F0070650
:10428000B6F1040C06D20EEB860CBDE870404CF083
:10429000010C6047DFE80CF0090B02024FF000410F
:1042A0004FF00000A1F5002170BD1946104601280D
:1042B00051EB010418BFD4F5001484BF002001F0B5
:1042C000004170BD0808A0F500114FEA31017047A8
:1042D00053EA010C17D41CF5801F58BFBCF5801F92
:1042E00000F106808B4218BF704708BF82427047BA
:1042F00007D713F5801F58BF11F5801F19D48B42C3
:1043000070479B4270471CF5801F08D5BCF5801F85
:10431000F7D5994218BF704708BF904270474FF4D5
:10432000001C1CEB430F38BF1CEB410F01D299421C
:1043300070470FB40CBC03BCFFF7C1BE91EA030F7A
:1043400010B581F000413FF565AC83F0004300F00B
:10435000EFB800002DE9F04101F5801CBCF5001F0D
:10436000C0F2C3804FEA115C21EA0C510CF1FD0C44
:1043700041F480115FEA5C0C0CF5C07C01D3400075
:1043800049413DA4890241EA905187028E0E0A0CF0
:10439000A45D04FB04F602FB06F6C6F14046A4FB4E
:1043A0000662F60D46EA422606FB06F4A4FB01234C
:1043B0005242C3F1404338BF5B1EA6FB02420024B9
:1043C000E6FB0324D20B42EA4446A6FB0623A1FBEC
:1043D00002E2A3FB07E4A4184FF0000252F100022E
:1043E000E3FB01426442C2F1404E38BFAEF1010E20
:1043F000A6FB04234FF00002E6FB0E32A2FB0346AD
:104400004FF00004B61954F10004E2FB0264A1FB72
:1044100006E6A4FB07E816EB08064FF0000858F183
:104420000008E4FB01687642C8F1405838BFA8F1A3
:104430000108A2FB06E4A3FB08E52D194FF00004D8
:1044400054F10004E2FB0854A1FB05E6A7FB04E8D5
:1044500018EB06084FF0000656F10006E1FB048653
:1044600018F1200556F10006A809A8F11B08B109AA
:1044700008F03F08B8F10A0F40EA86601CD901EB4A
:104480000C51BDE8F08100BFFCF5EEE8E2DDD8D3C9
:10449000CFCBC7C3C0BDB9B6B4B1AEACA9A7A5A3B5
:1044A000A19F9D9B9A9896959392908F8D8C8B89C6
:1044B0008887868584838281A0FB006800FB01F2E7
:1044C00008EB4208B8EB872807D5341858EB0104ED
:1044D000D5D5401C51F10001D1E7341A78EB010425
:1044E000CDD4401E71F10001C9E75FEA4C0C5FEAD0
:1044F0009C5C0DD105D34FF0000001F00041BDE8F8
:10450000F081BDE8F04170B5FFF78EFE6DDBFFBEB8
:10451000BDE8F0414FF00000004970470000F87F0F
:1045200010B591EA030F48BF83F000433FF572AB2B
:10453000841A71EB030C07D212198CF0004C43EB78
:104540000C03001B61EB0C01DFF8A4E14FEA1154EE
:10455000A4EB135C1EEA430F18BF9EEA445F00F011
:10456000B08023EA6E03524221EA0451C3EB6E038A
:1045700038BF5B1EDCF1200E25D322FA0CFE10EBB7
:104580000E0043FA0CFE41EB0E01CCF1200E03FAB3
:104590000EFE10EB0E0051F10001CCF1200E29D4DB
:1045A00012FA0EF201EB0451BDE8104058BF7047FB
:1045B000401C1CBFB2F1004F704700280CBF491CC3
:1045C00020F00100704712EB020E43EB030218BF0C
:1045D0004FF0010E4EEA4202ACF1200CDCF11E0E4F
:1045E00054D943FA0CFE10EB0E0051F1FF31CCF11F
:1045F0001E0ED5D50EF1010E12FA0EFE404141EB12
:10460000010101EB445C5FEA5C5C10D910EBDE70E9
:1046100001EB045138BFBEF1004FBDE8104018BF98
:10462000704700280CBF491C20F00100704730D2B1
:104630004FEAD42C11F5001124F400641BD0B1FA18
:1046400081F20B3AA41AA41ED2F12003914030FA51
:1046500003F31943904001EBCC71002C01EB0451A2
:10466000BDE81040A8BF704701F1C0414FF0000005
:1046700001F000417047B0FA80F310FA03F100D165
:1046800010BDE41A173C4805C90AE4E701EB0451E0
:1046900010BD491001EB0451BDE810404FEA300055
:1046A00002E04FF0000170474A0008BF0042F8D016
:1046B000B2F5001F28BF704701F000414FF0000025
:1046C00070479EEA445F07D011EA5E0FBDE81040D4
:1046D00004BF002100207047BDE8104070B5FFF70F
:1046E000A3FD00BF40DFF63E83F000411046704757
:1046F0000000E0FFFF2141EAD050C00570470CF0F8
:104700000F03092B08BF082000F059800A2B0BD09B
:10471000082B18BF704708BF1CF0400F0AD04FF09D
:1047200000004FF0000170471CF0400F18BF4FF021
:10473000004070471CF0100F08D020F0704300F0CC
:104740007F4242EAD3014FEA4370704700F0604075
:1047500021F07F4242EA000201F07F4040EA72709D
:1047600070474FF0FF0C4CF4E06C1CEA11531CBF77
:104770009CEA030C9445C2BFDA4201EB0251704738
:10478000002B0DD0BCF1000F0FD0002A01F000412A
:10479000A4BF41F0E04141F07F614FF0000070475D
:1047A00001F000414FF00000704750EA01334FF034
:1047B0009B0C18BF4CF0806C7FF4CCAA70471CF4A3
:1047C000801F11D01CF4E02F03D06FEACC314900D8
:1047D00070474FF04050EFF3008222F0704242EAFF
:1047E000000282F3008870474FF00000704700001D
:1047F000000000000000F03F000000000000F83F53
:1048000000000000000000000000004003B8E23F8C
:10481000000000000000000006D0CF43EBFD4C3E3E
:10482000033333333333E33FFFAB6FDBB66DDB3F33
:104830004D268F515555D53F01411DA96074D13F7B
:1048400065DBC9934A86CD3FEF4E454A287ECA3F75
:104850003E5555555555C53F93BDBE166CC166BFF7
:104860002CDE25AF6A56113FF16BD2C541BDBBBEF0
:10487000D0A4BE726937663E000000000000000050
:10488000A048000800000020400000006C01000863
:10489000E048000840000020780700008801000878
:1048A00000A24A040000000000000000010203040E
:1048B00006070809000000000000000000000000DA
:1048C00000000000000000000000000000000102E5
:1048D0000304010203040607080902040608000095
:0400000508000131BD
:00000001FF
